:020000040800F2
:1000000098190020E10600081F2F0008B52C0008F1
:100010001D2F000899100008F734000800000000A8
:100020000000000000000000000000005331000844
:10003000C7100008000000005131000855310008C9
:10004000FB060008FB060008FB060008FB0600088C
:10005000FB060008FB060008FB060008FB0600087C
:10006000FB060008FB060008FB0600089D100008C0
:10007000FB060008FB060008FB060008FB0600085C
:10008000FB060008FB060008FB060008FB0600084C
:10009000FB060008FB060008FB060008FB0600083C
:1000A000FB060008FB060008FB060008FB0600082C
:1000B000FB060008FB060008FB060008FB0600081C
:1000C000FB060008FB060008FB060008FB0600080C
:1000D000FB060008FB060008FB060008FB060008FC
:1000E000FB060008FB060008FB060008DFF80CD042
:1000F00000F028FF004800476541000898190020DB
:100100002DE9F04F4FF0000C4FF0000301EB1C6E97
:10011000BEF90250BEF900400EF5807EBEF9029095
:10012000BEF900800EF5807EBEF90270BEF9006057
:100130000EF5807EBEF902B0BEF900A00EF5807EFD
:10014000D044D944A8EB4A0AA9EB4B0B4FEAA404CC
:100150004FEAA50504EBA60405EBA705A4EB66068C
:10016000A5EB670704EBA80405EBA905A4EB680859
:10017000A5EB690906EBAB06A7EBAA07A6EB6B0B91
:1001800007EB6A0A458020F8044B478020F8046B8F
:10019000A0F8029020F8048BA0F802A020F804BB7D
:1001A00003F1010393FAA3FC402BAFD1A0EB820132
:1001B0004FF0100312090FF2361000F1000006B4E0
:1001C00003EB430C6144A2F5803202EB8332B1F9B8
:1001D0000250B1F90040A1EB0301B0F902B0B0F94F
:1001E00000A000F10400A5EB040E0EFB0BFC0AEBD3
:1001F0004B0E05FB0ACB04FB0ECAB1F90250B1F954
:100200000040A1EB0301B0F90290B0F9008000F1C9
:100210000400A5EB040E0EFB09FC08EB490E05FBE0
:1002200008C904FB0EC8B1F90250B1F90040A1EBB6
:100230000301B0F90270B0F9006000F10400A5EB11
:10024000040E0EFB07FC06EB470E05FB06C704FB7E
:100250000EC6B1F90250B1F9004001F10001D044DD
:10026000D944A8EB4A0AA9EB4B0B4FEAA4044FEA86
:10027000A50504EB264405EB2745A4EBE636A5EBE4
:10028000E73704EB284405EB2945A4EBE838A5EB58
:10029000E93906EB2B46A7EB2A47A6EBEB3B07EB2E
:1002A000EA3A4D800C8019444F800E801944A1F821
:1002B0000290A1F800801944A1F802A021F804BB23
:1002C000B2F5803283DA03EB430C6144A2F1010200
:1002D0005FEA024E18BFA0EB0C007FF476AF06BCBD
:1002E0004FEA830392087FF46AAFBDE8F08F0040C5
:1002F000000000400000004000005DDD213BA32223
:100300007E180000412D7EA5412D0000412D00C02A
:1003100000405DDD82E75DDD213B7EA5412D004093
:1003200000000040000000400000AA2A94126B392F
:10033000460649327C0CA8118E2349327C0CA3223C
:100340007E1821F77931AA2A9412A8118E235DDD37
:10035000213BA3227E180000412D95C6B13F461ACD
:100360002B1E58EE3735BEB4C53EA8118E235DDD79
:10037000213B63A97138DF089A28B7CDC53E7EA519
:10038000412D0000412D00C0004063A92B1E21F724
:100390007931BEB4C53EBEB47C0C58EE373561AC85
:1003A000213B95C6BAF9BAE571383BA737355DDD13
:1003B00082E75DDD213B7EA5412D21F766D756D52D
:1003C0003F3D3BA78E23A811C9CAB7CDC53E61AC3E
:1003D0007E18AA2AC1C295C6B13FBEB47C0C0040AB
:1003E000000000400000004000001E3BB504693ED4
:1003F0009201C83C2403EB356409C83C24036B39E3
:1004000046066C30060E1E3BB504EB356409AA2A7D
:1004100094126B39460649327C0CAE240917AF376B
:10042000D607882E8D0F7E1E5D1BEB356409AA2A28
:10043000941224188C1F1E34F10AB3269015A811AB
:100440008E2349327C0CA3227E18140B60276C305B
:10045000060E7E1E5D1B7104FB2A882E8D0F461A28
:100460002B1EC7FD5A2E9D2C1211FE15E72021F7D9
:100470007931AA2A9412A8118E2387F05334B22816
:100480001314480D202602EAE536B3269015DF083E
:100490009A289CE32B39AE2409177104FB2A5DDDF1
:1004A000213BA3227E180000412D4ED7C53C93204E
:1004B000EF198FFB6C2F78D1153E7E1E5D1B21F747
:1004C0007931E2CB0F3F641CC61CB8F2683395C685
:1004D000B13F461A2B1E58EE373597C1FB3F241803
:1004E0008C1F02EAE536F0BCEC3FFE15E720BAE5CA
:1004F0007138A6B8853FD5133D2282E1DB39BEB401
:10050000C53EA8118E235DDD213B40B1AF3D790F83
:10051000DA244DD9423C2EAE423C480D202656D519
:100520003F3D8EAB823A140B602778D1153E63A90C
:100530007138DF089A28B7CDC53EB1A71236A90693
:10054000CE2915CA4F3F78A668337104FB2A95C699
:10055000B13FBCA576303902212C38C3EC3F7EA5D3
:10056000412D0000412D00C00040BCA5CE29C7FD93
:100570005A2EF0BCEC3F78A620268FFB6C2F09BAD0
:10058000B13FB1A73D2257F976304DB74F3F63A930
:100590002B1E21F77931BEB4C53E8EABEF19ECF4BA
:1005A00074325EB2153E2EAE9015B8F268332DB09F
:1005B0003F3D40B1121187F053342EAE423CBEB4E1
:1005C0007C0C58EE373561AC213BA6B8D6072BEC36
:1005D0001236C8AADB39F0BC240302EAE53663A967
:1005E000713897C16EFEDCE7B03734A8E53695C6A2
:1005F000BAF9BAE571383BA73735E2CB0FF59CE382
:100600002B3978A6683378D173F082E1DB39EDA518
:1006100079314ED7EDEB6DDF823A99A56C2F5DDD18
:1006200082E75DDD213B7EA5412D9CE33AE352DB71
:10063000B63B99A5FB2A02EA19DF4DD9423CEDA54C
:100640009A2887F026DB4ED7C53C78A6202621F7CE
:1006500066D756D53F3D3BA78E23C7FDDFD363D377
:10066000AF3D34A8E720710494D078D1153E63A93A
:100670002B1E140B8CCD94CF723EC8AA5D1BA81103
:10068000C9CAB7CDC53E61AC7E18241850C8E2CBAC
:100690000F3F2EAE90157E1E25C615CA4F3F2DB0BA
:1006A0009412AE244AC451C8853F5EB28D0FAA2A67
:1006B000C1C295C6B13FBEB47C0C6C308EC1E2C4E1
:1006C000D43F4DB76409EB35B1C038C3EC3F09BA2C
:1006D00046061E3B2CC097C1FB3FF0BC2403000024
:1006E0000648804706480047FEE7FEE7FEE7FEE7CC
:1006F000FEE7FEE7FEE7FEE7FEE7FEE7DD31000886
:10070000ED000008202A04DB203A21FA02F0002143
:10071000704721FA02F3D040C2F120029140084311
:1007200019467047D2B201E000F8012B491EFBD2F6
:1007300070470022F6E710B513460A4604461946EC
:10074000FFF7F0FF204610BDF0B480EA0102D40F9D
:100750004200B2EB410F02D20246084611464A005F
:1007600042D0C30DDDB2C1F3C752AD1A202D35DA28
:10077000C1F3160141F4000204B15242C5F1200652
:1007800002FA06F12A411044B3EBD05F23D0C4B182
:10079000012DA0EBC35009DCF0BC4FF0004202EA8F
:1007A000C352DBB200F5000000F0C0BA400000F117
:1007B000807000EBC350A0F1807040EAD170490016
:1007C00009E0490841EAC071A0EBC35000F5000000
:1007D000400800EBC350F0BC00F09FBA6142012218
:1007E00002EB4101001BF6E7F0BC704781F00041CD
:1007F000AAE780F00040A7E780EA010210B502F006
:100800000043400022D04A001FD0010E01EB1261CC
:10081000C0F35600C2F3560240F4000042F4000256
:10082000A0FB022000047F39140400D0401C50EAD1
:10083000124001D44000491EC2B20C0604EBD01095
:10084000401C4008802A02D003E0002010BD20F0A8
:100850000100002900DA0020184310BD420005D035
:10086000C0F3C7525242914201DC0020704700EBB6
:10087000C15070472DE9FE4F804681EA0300C00F4A
:100880000C46009021F0004123F00045B8EB020037
:10089000A94105D24046214690461C460B460246D9
:1008A00023F00040104347D0270DC7F30A00C3F3DD
:1008B0000A510290401A019040286BDAC3F31300EA
:1008C00040F4801B0098924620B10023D2EB030A2B
:1008D00063EB0B0B01985946C0F14002504600F003
:1008E000FBF906460D4650465946019A00F003FAB8
:1008F00010EB08006141002487EA115284EAE77393
:100900001A4340D0009A62B3019A012A4FEA075273
:1009100015DC001B61EB02014FF0004202EA0752B6
:10092000CDE90042001C41F5801132462B4600F013
:100930003AFA03B0BDE8F08F40462146F9E7001BC4
:1009400061EB0201001C41F5801300185B41201887
:10095000A2F5001747EB030140EAD570B6196D41C7
:1009600011E06D084FEA360645EAC0754FEA0752B6
:10097000001B61EB0201001C41F5801149084FEAA0
:1009800030000019514132462B4603B0BDE8F04F0C
:1009900000F0FAB90098012240000023D0EB0202D7
:1009A00063EBE073009821464FEAE074B8EB000077
:1009B00061EB0401E9E783F000435BE781F000416C
:1009C00058E72DE9FE4F81EA030404F0004421F0CA
:1009D000004100944FF0000B23F0004350EA010463
:1009E0005ED052EA03045BD0C3F30A54C1F30A5544
:1009F0002C44A4F2F3340194A0FB0254C1F313017C
:100A000041F48011C3F3130343F4801301FB024448
:100A100000FB034E840A970A44EA815447EA83574D
:100A2000A4FB076802958D0A05FB07854FEA932C06
:100A300004FB0C542705029D4FEA065847EA163777
:100A4000B5EB08056EEB070C870E920E47EA81178F
:100A500042EA8312A7FB0201B6EB0B0164EB000430
:100A60002B0D43EA0C335E1844EB1C50DA4651461A
:100A7000E7FB0201C5F313044FEA0B3343EA1453B7
:100A80004FEA0432019C43EA0603A4F10C040294E9
:100A9000009CCDE900B400F086F903B0BDE8F08F0A
:100AA00000200146F9E72DE9F04D81EA030404F046
:100AB000004B21F0004514464FF0000A23F000419E
:100AC00050EA050220D054EA01021DD0C5F30A57AE
:100AD0000246C5F31303C1F31300C1F30A5640F4F1
:100AE000801543F48013A7EB0608101BD64608F2C6
:100AF000FD3873EB050002D308F1010801E09218FC
:100B00005B41B8F1000F03DA00200146BDE8F08D2B
:100B100000204FF48011064684460EE0171B73EB4D
:100B2000050705D3121B63EB050306434CEA010CD2
:100B300049084FEA300092185B4150EA0107EDD1B5
:100B400052EA030012D082EA040083EA0501084356
:100B500005D0101BAB4106D20122002306E0002283
:100B60004FF0004302E06FF0010253101AEB060051
:100B70004CEB085110EB0A0041EB0B01BDE8F04DC6
:100B800000F002B970B521F0004303430CD0C1F36B
:100B90000A550024D5EB040564EB0403D617AD1AFF
:100BA000B34102DB0020014670BD201841EB025129
:100BB00070BDC10F80EAE0700844CA079623002187
:100BC00000F0B4B820F00040C10DC0F3160040F4AE
:100BD00000007F2901DA00207047962903DCC1F16B
:100BE0009601C840704796398840704700F000422F
:100BF00030F000400AD0C10D01F56071C0F316005D
:100C000042EA0151C20840071143704700200146E3
:100C1000704701F0004330B421F0004150EA010276
:100C200006D00A0DA2F56072C1F31301002A02DC9E
:100C300030BC00207047440F44EAC104C100E018F2
:100C400030BC00EBC25000F068B830B50B4601462E
:100C500000202022012409E021FA02F59D4205D35B
:100C600003FA02F5491B04FA02F52844151EA2F105
:100C70000102F1DC30BD2DE9F05F0546002092460F
:100C80009B4688460646814640241BE0284641464E
:100C900047462246FFF736FD53465A46C01A914151
:100CA00010D311461846224600F016F82D1A67EBAD
:100CB00001084F4622460120002100F00DF817EBF5
:100CC00000094E41201EA4F10104DFDC48463146F4
:100CD0002A464346BDE8F09F202A04DB203A00FA6A
:100CE00002F1002070479140C2F1200320FA03F383
:100CF000194390407047202A06DBCB17203A41FA6F
:100D000002F043EAE07306E041FA02F3D040C2F198
:100D1000200291400843194670470029A8BF704738
:100D2000401C490008BF20F00100704710B4B0FA21
:100D300080FC00FA0CF050EA010404BF10BC7047BC
:100D400049B1CCF1200421FA04F411FA0CF118BFD6
:100D5000012121430843A3EB0C01CB1D4FEA0061A5
:100D60004FEA102042BF002010BC704700EBC35078
:100D700010440029A4BF10BC7047401C490008BFA4
:100D800020F0010010BC704710B5141E73F1000470
:100D900008DA401C41F1000192185B411A4301D16D
:100DA00020F0010010BD2DE9F04D92469B4611B197
:100DB000B1FA81F202E0B0FA80F220329046FFF7F9
:100DC0008BFF04460F4640EA0A0041EA0B015346F6
:100DD0005A46084313D0114653EA010019D0C8F10E
:100DE00040025046FFF78EFC05460E4650465946D7
:100DF0004246FFF771FF084305D0012004E020467A
:100E00003946BDE8F08D0020054346EAE0762C43E4
:100E100037430A986305E40AA0EB08000022FD0AA4
:100E200044EA47540A3002D500200146E9E70105AB
:100E300010196941DDE9084500196941BDE8F04D27
:100E4000A2E72DE9F04D00231A461B1A8A4103DB65
:100E500000200146BDE8F08DC1F30A52C1F3130131
:100E600041F480154FF0000BD10702D100186D41FD
:100E7000521E0027044640F2FF11384601EB620A79
:100E80003E468046024600204FF48011FFF73AFCB0
:100E9000C2197141BB1846EB0100B4EB030C75EBB2
:100EA000000C04D3E41A65EB000517460E4624191E
:100EB00008F101006D4180463428E3DDF91946EB65
:100EC0000600091BA84103D24FF0FF32134601E090
:100ED000002213461BEB070046EB0A51BDE8F04D1C
:100EE000FFF752BFC1F30A52C1F3130140F2FF33BF
:100EF00041F480119A4202DA00200146704740F224
:100F000033439A42A2F2334202DC5242FFF7FABB69
:100F1000FFF7E2BE30B5041E71F1000404DB4FF0B0
:100F20000044404264EB0101141E73F1000405DB30
:100F30001C464FF00043524263EB0403994208BF42
:100F4000904230BD064C074D06E0E06840F00103DA
:100F500094E8070098471034AC42F6D3FFF7CAF87C
:100F6000644500088445000870B50446006881683F
:100F7000C943C9071CD1816821F00101816000F0DB
:100F800091FF05460FE000BF00F08CFF401B0228D8
:100F900009D9A06A40F01000A062E06A40F00100A8
:100FA000E062012070BD20688068C043C007EBD0BC
:100FB000002070BD10B50146406A826A12F0500FE1
:100FC00005D0006A026BBDE8104008461047816AF0
:100FD00041F40071816201688968C1F342410729C7
:100FE0000CD1C16851B9816A21F480718162816A32
:100FF000C90403D4816A41F00101816200F0CEFA94
:1010000010BD10B5406A816A41F040018162C16A39
:1010100041F00401C16200F018FB10BD10B5406A38
:1010200000F012FB10BD0000F8B500260446009643
:1010300000688168C943C90728D0816841F001016F
:101040008160134813490068B0FBF1F000E0401ED6
:1010500000900028FBD100F025FF054611E000BFFD
:1010600000F020FF401B02280BD9A06A40F01000BE
:10107000A062E06A40F00100E06284F82460012090
:10108000F8BD20688068C043C007E9D10020F8BDE2
:101090001C00002040420F00FEE70000014800F065
:1010A00083BC0000200D002010B504686360436815
:1010B000102B036803D099600068C26010BD9A606D
:1010C0000068C16010BD7047FEE70000174810B50A
:1010D000816986B041F004018161816901F00401F8
:1010E0000491816941F008018161816901F0080181
:1010F0000491816941F01001816180690C4C00F01C
:1011000010000490F0200090012001900020029037
:10111000022003906946204600F0DCFD0122F02108
:10112000204600F0BAFE06B010BD000000100240DC
:10113000000C014001F004BF01F0B6BF2DE9F04101
:1011400015461E460F460446A84202D9D0B225468F
:10115000044632463946204600F0ACF8641CA4B27E
:10116000A542F6D2BDE8F08101F022BF2DE9FC5F77
:1011700005460C98984691460C4600286FD03228B8
:1011800000D932204608871BA9EB05037F1EA8EB78
:1011900004024FF0FF30002B02DD4FF0010B01E0A5
:1011A00005DA8346002A12DD4FF0010010E0AE1B85
:1011B00000D5002605EB070508F0FF02E1B2B0B24A
:1011C0000D9B00F0CEF8AE4272DA761CF4E70BDA33
:1011D00082460BFB03F150434A0001924200009209
:1011E000814239DB501A1FE0A61B00D500263C4483
:1011F0001FFA89F2F1B2A8B20D9BFFF79FFFA6423A
:1012000056DA761CF4E7002800DA0020E119CAB2A9
:10121000C1B2A8B20D9B00F0A4F85D44B8F1000F74
:1012200004DA009908EB0100804604E0DDE90001E2
:10123000411A884454444D45A4EB0600E3D10028EC
:1012400000DA0020E119CAB20D9BC1B202B0A8B207
:10125000BDE8F05F00F085B80199081A10E027E0BA
:10126000002800DA0020E9198AB2E1B280B20D9BB1
:10127000FFF764FF5444B9F1000F03DA01984844C2
:10128000814604E0DDE90010411A89445D4444458B
:10129000A5EB0600E4D1002800DA0020E9190D9B37
:1012A0008AB202B0E1B2BDE8F05F80B2FFF746BF9C
:1012B000BDE8FC9FC0B201F05BBE00002DE9F05F0D
:1012C0000F460446782801D8382F02D90020BDE8FF
:1012D000F09FA2F12000602800D32022203A144978
:1012E000D0B2DFF85090002601EBC00ADFF848B01A
:1012F0001AF80680002500BF19F8050010EA080F4B
:1013000002D19BF8002001E00C480278F9B2A0B2AB
:10131000FFF7D0FF6D1CEDB2641C062DECD3761CDC
:10132000F6B2A41F7F1C082EE0D30120CFE70000F7
:101330005C4200085C4500082500002024000020D5
:1013400070B514460E4605462278002A08D031466C
:101350002846641CFFF7B2FF002801D0AD1DF3E75B
:1013600070BD2DE9F04115461E4607460C46A942C0
:1013700001D90D461446324621463846FFF79AFFFA
:10138000641CE4B2A542F6D2BDE8F081014A1070B7
:1013900051707047240000202DE9F047DFF890904D
:1013A00000246FF00E076FF0070A09F5007800BF00
:1013B00059F8241008B20E14FFF7FBFB0821FFF7C1
:1013C0004DFA3946FFF74AFA05463046FFF7F1FB7A
:1013D0000821FFF743FA3946FFF740FA0146FFF7C5
:1013E0000BFA064629460846FFF706FA3146FFF78C
:1013F000ABF9FFF7FBFB02F0FFFE5246FFF7C2FB23
:10140000FFF707FC64B11021FFF728FAFFF7DAFBBA
:1014100048F82400641CA4B2802CC9D3BDE8F0872E
:101420000F21FFF71BFAFFF7CDFBC8F80000F1E72B
:1014300030080020F8B50025009590F82420AE462D
:10144000012A1ED0012280F824204A681F244FF46C
:101450007873072A17D20668776B93FAA3FCBCFA55
:101460008CFC521E02FB0CFC04FA0CF4A74393FA0A
:10147000A3F3B3FA83F30C685A439440274377638A
:101480002DE00220F8BD06680D2A14D2376B93FABE
:10149000A3FCBCFA8CFCD21F02FB0CFC04FA0CF47B
:1014A000A74393FAA3F3B3FA83F30C685A43944027
:1014B0002743376313E0F76A93FAA3FCBCFA8CFC6A
:1014C0000D3A02FB0CFC04FA0CF4A74393FAA3F3C5
:1014D000B3FA83F30C685A4394402743F7620A68CF
:1014E0003823072406680A2A14D3F76893FAA3FC62
:1014F000BCFA8CFC0A3A02FB0CFC04FA0CF4A7437D
:1015000093FAA3F3B3FA83F38C685A4394402743C6
:10151000F76012E0376993FAA3FCBCFA8CFC02FB7B
:101520000CFC04FA0CF4A74393FAA3F3B3FA83F385
:101530008C685A439440274337610A68102A01D0C7
:10154000112A20D1124B02689A4217D193681B02CC
:1015500019D4936843F4000393600968102912D1E9
:101560000C490D4A0968B1FBF2F101EB8101490018
:1015700000E0491E00910029FBD104E0816A41F09E
:1015800020018162012580F824E02846F8BD000092
:10159000002401401C00002040420F0010B5002430
:1015A000254800F0AFF9254901F5806031F8242085
:1015B000A2F50062120440F82420641CA4B2FF2C9F
:1015C000F4D91F494FF48074224601F58060FEF77C
:1015D00097FDFFF7E1FE1B48817801290DD1C188F5
:1015E000B1F5967F09D90021C1804178491CC9B263
:1015F0004170042901D901214170C188491CC18071
:101600004078012808D0022809D0032801D00428F6
:1016100008D002F0EDFC07E002F006FC04E002F066
:1016200073FC01E002F034FD2246BDE8104003499E
:10163000014800F0E1B80000F00C0020300000206C
:101640003004002000000020704770472DE9F04171
:1016500004004FF0000513D0A06A002628B9E66206
:1016600084F82460204600F08BF82046FFF77CFCCD
:10167000A16AC90600D420B1A06A40F01000A0629F
:1016800078E0A16A21F4885141F00201A162626808
:10169000E16902270A43E16897FAA7F70B46B7FA10
:1016A00087F7B9400A43A1684FF48077B94209D05F
:1016B000012907D05FF00001D4F814C0BCF1010F7C
:1016C00002D00AE03946F7E7F3B1A36A43F02003FA
:1016D000A362E36A43F00103E3622368D3F804C022
:1016E0002CF4694C4CEA010CC3F804C021688B68E7
:1016F000DFF884C003EA0C0313438B60A168B9428E
:1017000010D001290ED016E04FF4604CA3699CFA6A
:10171000ACFCBCFA8CFC5B1E03FA0CF30B4343F4E9
:101720000061DAE74FF47001256991FAA1F1B1FA8D
:1017300081F16D1E8D402168CB6A23F470032B4329
:10174000CB62216889680D4B1940914208D1E6624D
:10175000A16A21F0020141F00101A162BDE8F0811E
:10176000A06A20F0020040F01000A062E06A40F0A1
:101770000100E0620120F1E7FDF7E1FFFE0E1FFF2F
:1017800030B505460068174985B0884227D116480C
:10179000816941F4007181618069694600F40070DB
:1017A00004900120009003200190104800F092FA6C
:1017B000104C0F488021206000206060C4E90201C5
:1017C00089002161890061612021C4E90610204659
:1017D00000F020FA08B1FFF777FC2C62656205B0D3
:1017E00030BD00000024014000100240000801400C
:1017F00008000240200D00202DE9F04789460446EC
:101800003B4900683B4F0E1D9046884201D0B842CC
:1018100007D1306810F4702F03D001252846BDE8A9
:10182000F08794F8240001280CD0012084F82400CB
:101830002046FFF7F9FB05004FF0000004D084F8C4
:101840002400EBE70220EAE7A16A40F60162914337
:1018500041F48071A1622168B94218D1326812F452
:10186000702F14D0A16A41F48011A162316849053A
:1018700005D5A16A21F4005141F48051A162A16A09
:10188000C9040AD5E16A21F00601E16206E0A26A14
:1018900022F48012A2624968E9E7E06284F8240039
:1018A000216A15488862216A1448C862216A14486E
:1018B000086321686FF0020008602068816841F4C5
:1018C00080718160216843464A464C31206A00F0AD
:1018D000C9F920688168C1F342410729816803D0B2
:1018E00041F48011816099E741F4A001FAE700001A
:1018F0000024014000280140B50F00081D10000819
:101900000310000810B5044690F82400012807D001
:10191000012084F824002046FFF726FB10B10EE0DA
:10192000022010BD2068816821F480718160206AE6
:1019300000F00EF8A16A30B141F04001A16200212F
:1019400084F8241010BD21F4885141F00101F5E71D
:101950002DE9F04104460068016821F001010160B1
:1019600000F0A0FA054600264FF47A7710E000BF99
:1019700000F098FA401BB8420AD954F8340F40F0EE
:10198000200044F81409032060702670BDE8F0813F
:1019900020680068C007EBD1012084F8210084F89A
:1019A00020600020F2E700002DE9F05FDFF86082A0
:1019B0000446D8F80020DFF858B2954D944E944F65
:1019C0000068DFF84C92DFF848A20BF1080B1C35D9
:1019D000303644374FF400614FF4004C4FF4002E82
:1019E00009F158090AF16C0A584501D1082316E09B
:1019F000A84201D1802312E0B04201D10B460EE093
:101A0000B84201D163460AE0484501D1734606E079
:101A1000504502D14FF4000301E04FF000631A4239
:101A200031D00268D24312072DD4026822F0080296
:101A300002602068584501D1082114E0A84201D174
:101A4000802110E0B0420ED0B84201D161460AE0D8
:101A5000484501D1714606E0504502D14FF40001DE
:101A600001E04FF00061C8F80410606B40F0010025
:101A70006063042084F82100002084F82000216B9A
:101A800009B1204688476248D0F800C04FF4806111
:101A900020680A010B044FF4802E584502D14FF004
:101AA000040816E0A84202D14FF0400811E0B0420D
:101AB00001D188460DE0B84201D1904609E0484581
:101AC00001D1F04605E0504502D14FF4800800E016
:101AD00098461CEA080F33D0D0F800C06FEA0C0C0F
:101AE0005FEA4C7C2CD4D0F800C05FEA8C6C05D443
:101AF000D0F800C02CF0040CC0F800C02068584595
:101B000001D1042113E0A84201D140210FE0B042ED
:101B10000DD0B84201D1114609E0484501D17146C6
:101B200005E0504502D14FF4800100E019463848E5
:101B30004160112084F82100E16A09B120468847FC
:101B4000334AD2F800C05B46206851154FF4005B61
:101B50004FF4003E984202D14FF0020817E0A8422D
:101B600002D14FF0200812E0B04201D188460EE0C9
:101B7000B84201D1D8460AE0484501D1F04606E016
:101B8000504502D14FF4001801E04FF000781CEAF4
:101B9000080F3BD0D0F800C06FEA0C0C5FEA8C7CD9
:101BA00034D4D0F800C05FEA8C6C05D4D0F800C003
:101BB0002CF0020CC0F800C02068984201D102212C
:101BC00014E0A84201D1202110E0B0420ED0B8426A
:101BD00001D159460AE0484501D1714606E0504519
:101BE00002D14FF4001101E04FF000715160606BC1
:101BF0006063012084F82100002084F82000A16A9D
:101C0000002903D02046BDE8F05F0847BDE8F09FFB
:101C10000000024070B520B190F82110002411B1ED
:101C200003E0012070BD80F82040022180F82110DF
:101C300003681A6843F6F0718A43D0E90115294315
:101C4000D0E903563543294345692943856929432A
:101C5000C5692943114319604463012180F82110AB
:101C6000002070BD70B5044690F82000012823D0F4
:101C7000012084F82000022084F8210020680568F3
:101C800025F0010505602046FFF70EFA206801687F
:101C900041F0020101602068016841F00401016027
:101CA0002068016841F0080101602068016841F086
:101CB00001010160002070BD022070BD31B500F04F
:101CC000F1F8044600F0EEF80099001B8842F9D3C1
:101CD00038BD00002DE9F84FDFF890A100220AF18D
:101CE000040B144601274FF00F090BF1040E00BF3F
:101CF0000B6807FA04F52B40AB4274D1DFF870C1D2
:101D00004E68A6EB0C0866452BD00DDC032E34D0B4
:101D100005DC36B3012E19D0022E2FD11BE0112E77
:101D200016D0122E2AD119E0B8F5881F19D006DC7A
:101D3000B8F5803F15D0B8F5801F1FD111E0B8F578
:101D4000001F0ED0B8F5041F18D10AE0CA6815E0CC
:101D5000CA68121D12E0CA6808320FE0CA680C3265
:101D60000CE08A682AB1012A4FF0080203D04561CD
:101D700004E0042202E0056100E00022FF2B01D80C
:101D8000064601E000F104064FEA840501D9A5F1F9
:101D90002005D6F800C009FA05F82CEA080C02FA6A
:101DA00005F54CEA050CC6F800C04D68ED0057D5A6
:101DB000304DAE6946F00106AE61AD6924F0030610
:101DC00005F0010500952C4D06EB050CDCF80850DC
:101DD000A6074FEA167809FA08F6B543274EB0422F
:101DE00002D1002610E03BE0254EB04201D1012691
:101DF0000AE0244EB04201D1022605E0224EB04254
:101E000001D1032600E0042606FA08F62E43CCF89A
:101E100008604D68DAF80060ED03554601D51E43B1
:101E200000E09E432E604D68DBF80060AD035D4628
:101E300001D51E4300E09E432E604D68DEF8006031
:101E4000ED02754601D51E4300E09E432E604D68AD
:101E5000AD020E4D2E6801D51E4300E09E432E605C
:101E6000641C102CFFF444AFBDE8F88F000401405F
:101E70000000111000100240000001400008014065
:101E8000000C014000100140001401400C0401400E
:101E90008068084000D0012070470AB10161704796
:101EA0000904FBE70148006870470000200000209B
:101EB00002480168491C01607047000020000020B2
:101EC000074810B5016841F010010160032000F0DF
:101ED00087F8002000F006F800F016F8002010BD8A
:101EE0000020024010B5044600F0E6F94FF47A7184
:101EF000B0FBF1F000F026FD00222146501E00F05C
:101F00004FF8002010BD00001D4808B5816941F060
:101F100001018161806900F001000090032000F060
:101F20005FF8002211466FF00B0000F039F8002234
:101F300011466FF00A0000F033F8002211466FF0EE
:101F4000090000F02DF800221146501F00F028F87B
:101F500000221146101F00F023F800221146901EA7
:101F600000F01EF800221146501E00F019F8054836
:101F7000416821F0E06141F08061416008BD0000EE
:101F8000001002400000014000F01F0201219140BA
:101F90004009800000F1E020C0F800117047000007
:101FA000F0B40E4B1B680C46C3F30223C3F10705C4
:101FB000042D00D90425191D072901D2002300E0B2
:101FC000DB1E012606FA05F1491E214099409E407C
:101FD000761E16403143F0BC00F0A2BF0CED00E0CD
:101FE000064900F0070208684FF6FF03184040EA70
:101FF0000220034A10430860704700000CED00E027
:102000000000FA052DE9F84305460078454CC00765
:1020100074D0E06940F08050E061E069424E00F029
:1020200080500090306840F480703060FFF73AFFD5
:10203000074604E0FFF736FFC01B642833D830683A
:10204000C005F7D5206A10F4407051D0A98801F47A
:10205000407181424CD0206A0126310491FAA1F2EC
:10206000B2FA82F29300314A20F440701344C3F86C
:10207000006491FAA1F1B1FA81F102EB8101002330
:10208000C1F800342062C00732D0FFF70BFF0746CB
:1020900041F288394FF0020808E000BFFFF702FF65
:1020A000C11B494502D90320BDE8F88398FAA8F17D
:1020B000B1FA81F141F040014046B6EB511F01D128
:1020C00021680BE090FAA0F1B1FA81F141F04001F2
:1020D000B0EB511F01D1216A00E0616A98FAA8F0C3
:1020E000B0FA80F000F01F0206FA02F00142D5D0EB
:1020F000206A696820F440700843206228788007CD
:1021000005D56068A96820F44040084360602878DD
:10211000C00605D56068E96820F480000843606067
:102120000020C1E700100240007000400000424261
:102130002DE9F047DFF8708105460E46D8F800001B
:1021400000F00700B0420CD2D8F8001021F00701CF
:102150003143C8F80010D8F8000000F00700B04282
:1021600077D12878514C800705D56068A96820F0A0
:10217000F000084360602878C00759D069680120E2
:1021800001290DD0022929D05FF0020393FAA3F2AE
:10219000B2FA82F242F02002520904D0226803E02F
:1021A0004FF40033F2E7626A93FAA3F3B3FA83F3CE
:1021B00003F01F03984002424BD0606820F00300F8
:1021C00008436060FFF76EFE6968074641F2883099
:1021D00001290DD00229814617D025E04FF0007368
:1021E000D4E700BFFFF75EFEC11B494501D918E0E7
:1021F00081466068C0F381000128F3D118E000BF78
:10220000FFF750FEC11B49450BD86068C0F3810041
:102210000228F5D10CE000BFFFF744FEC11B494581
:1022200002D90320BDE8F087606810F00C0FF3D1ED
:10223000D8F80010404601F00701B1420BD90168FF
:1022400021F0070131430160006800F00700B0424F
:1022500001D00120E6E72878400705D56068E968E5
:1022600020F4E060084360602878000706D56068C5
:10227000296920F4605040EAC100606000F052F823
:102280006168F02292FAA2F201F0F001B2FA82F251
:10229000D140074A515CC840064908600020FFF75A
:1022A00021FE0020BEE70000002002400010024096
:1022B000444200081C0000200148006870470000EC
:1022C0001C00002008480949006849684FF4E06292
:1022D00092FAA2F201F4E061B2FA82F2D140044A29
:1022E000515CC840704700001C00002000100240F4
:1022F0005442000808480949006849684FF4605290
:1023000092FAA2F201F46051B2FA82F2D140044A88
:10231000515CC840704700001C00002000100240C3
:102320005442000810B519A385B00FCB8DE80F00FB
:102330001AA01B4B006804905A681A4802F00C015E
:1023400004291DD008291BD14FF4701494FAA4F469
:1023500002F47011B4FA84F4E140D2031DF80110C4
:1023600010D55A684FF4003393FAA3F302F4003205
:10237000B3FA83F3DA4004AB9A5CB0FBF2F0484363
:1023800005B010BD08484843FAE700000203040501
:10239000060708090A0B0C0D0E0F101001020000B1
:1023A0000010024000127A0000093D002DE9F84FAC
:1023B00004460078F74DC0074FF0010625D0686845
:1023C0007704C0F38100012807D06868C0F381005A
:1023D00002281BD16868C00318D597FAA7F0B0FA95
:1023E00080F040F02000400901D0286800E0686AD1
:1023F00097FAA7F1B1FA81F101F01F0106FA01F194
:1024000008425ED0606800287CD05AE06068B0F571
:10241000803F0BD010B1B0F5A02F11D0286820F468
:1024200080302860286820F4802002E0286840F48A
:1024300080302860606828B3FFF734FD80460BE0E9
:10244000286840F480202860F0E700BFFFF72AFDED
:10245000A0EB0800642871D897FAA7F0B0FA80F0D2
:1024600040F02000400901D0286800E0686A97FA2F
:10247000A7F1B1FA81F101F01F0106FA01F108425A
:10248000E4D01EE0FFF70EFD804605E0FFF70AFDF1
:10249000A0EB08006428DED897FAA7F0B0FA80F025
:1024A00040F02000400901D0286800E0686A97FAEF
:1024B000A7F1B1FA81F101F01F0106FA01F108421A
:1024C000E4D12078DFF8D08280074FF000094FF088
:1024D00002075BD568684FF0F80B10F00C0F07D0BF
:1024E0006868C0F3810002281CD16868C00319D451
:1024F00097FAA7F0B0FA80F040F02000400902D02F
:10250000286801E08BE0686A97FAA7F1B1FA81F1D7
:1025100001F01F0106FA01F108422CD020690128C0
:102520007DD128E0206990B396FAA6F0B0FA80F049
:1025300048F82060FFF7B6FC824607E011E100BFD3
:10254000FFF7B0FCA0EB0A00022884D897FAA7F0A6
:10255000B0FA80F040F02000400901D0286800E087
:10256000686A97FAA7F1B1FA81F101F01F0106FA42
:1025700001F10842E4D028689BFAABF26169B2FA33
:1025800082F220F0F80091400843286025E0FFE740
:1025900096FAA6F1B1FA81F148F82190FFF782FC92
:1025A000824605E0FFF77EFCA0EB0A000228CCD8AB
:1025B00097FAA7F0B0FA80F040F02000400901D06F
:1025C000286800E0686A97FAA7F1B1FA81F101F092
:1025D0001F0106FA01F10842E4D1207800076ED508
:1025E000A069B8B396FAA6F0B0FA80F008EB8000C4
:1025F000C0F88064FFF756FC824605E0FFF752FC06
:10260000A0EB0A000228A0D897FAA7F0B0FA80F051
:1026100040F06000B6EB501F02D128680CE062E188
:1026200097FAA7F0B0FA80F040F06000B7EB501FC7
:1026300001D1286A00E0686A97FAA7F1B1FA81F13E
:1026400001F01F0106FA01F21042D7D00120FFF776
:1026500035FB34E0FFE796FAA6F1B1FA81F108EB19
:102660008101C1F88094FFF71DFC824606E000BF9F
:10267000FFF718FCA0EB0A00022872D897FAA7F01F
:10268000B0FA80F040F06000B6EB501F01D128682E
:102690000BE097FAA7F0B0FA80F040F06000B7EBDB
:1026A000501F01D1286A00E0686A97FAA7F1B1FAD1
:1026B00081F101F01F0106FA01F21042D8D1207811
:1026C000400765D5E86940F08050E861E869DFF8C7
:1026D000CCB000F080500090DBF8001041F4807125
:1026E000CBF80010FFF7DEFB824605E0FFF7DAFBD0
:1026F000A0EB0A00642834D8DBF80000C005F5D54B
:10270000E06801280AD008B1052813D0286A20F013
:1027100001002862286A20F0040002E0286A40F0E4
:1027200001002862E06841F2883B90B3FFF7BAFBF2
:1027300082460BE0286A40F004002862EEE700BF02
:10274000FFF7B0FBA0EB0A0159450AD897FAA7F0AA
:10275000B0FA80F040F04000B6EB501F02D128687C
:102760000CE0A3E097FAA7F0B0FA80F040F0400048
:10277000B7EB501F01D1286A00E0686A97FAA7F109
:10278000B1FA81F101F01F0206FA02F10842D7D036
:1027900031E005E0001002400000424200700040BD
:1027A000FFF780FB824605E0FFF77CFBA0EB0A0108
:1027B00059457BD897FAA7F0B0FA80F040F0400076
:1027C000B6EB501F01D128680BE097FAA7F0B0FADA
:1027D00080F040F04000B7EB501F01D1286A00E0C4
:1027E000686A97FAA7F1B1FA81F101F01F0206FABF
:1027F00002F10842D8D1E06980B36968C1F3810170
:10280000022970D04FF080714F000228484609D04D
:1028100091FAA1F1B1FA81F148F82100FFF742FBEA
:10282000044669E08A4691FAA1F1B1FA81F1C14604
:1028300048F82100FFF736FB804605E0FFF732FB42
:10284000A0EB0800022854D897FAA7F0B0FA80F05D
:1028500040F02000400902D0286801E061E0686A89
:1028600097FAA7F1B1FA81F101F01F0106FA01F11F
:102870000842E3D1206AB0F5803F05D16868A168BD
:1028800020F4003008436860D4E90801084369680F
:1028900021F47411084368609AFAAAF0B0FA80F043
:1028A00049F82060FFF7FEFA044606E021E000BF89
:1028B000FFF7F8FA001B02281BD897FAA7F0B0FA26
:1028C00080F040F02000400901D0286800E0686AEC
:1028D00097FAA7F1B1FA81F101F01F0106FA01F1AF
:1028E0000842E5D01DE01EE0FFF7DCFA001B0228DD
:1028F00002D90320BDE8F88F97FAA7F0B0FA80F06C
:1029000040F02000400901D0286800E0686A97FA8A
:10291000A7F1B1FA81F101F01F0106FA01F10842B5
:10292000E2D10020E6E70120E4E74FF0E0210428AF
:10293000086903D020F004000861704740F00400EB
:10294000FAE7704710B5401EB0F1807F01D3012037
:1029500010BD4FF0E02460610F21601700F0E0FA35
:102960000020A06107202061002010BD10B5FFF7F6
:10297000E8FF10BD30B590F83820012A20D00122A0
:1029800080F83820022380F8393003685C6824F02E
:1029900070045C6003685C680D682C435C600368CD
:1029A0009C6824F080049C6003689C6849680C4320
:1029B0009C6080F83920002180F83810084630BD2E
:1029C000022030BD10B5040003D094F8390010B1D6
:1029D00007E0012010BD002084F83800204600F0F8
:1029E0000DF8022084F83900211D206800F01AFC3F
:1029F000012084F83900002010BD000008B50068EF
:102A00000649884208D10648C16941F00201C16106
:102A1000C06900F00200009008BD00000004004002
:102A200000100240022180F8391001680A6842F063
:102A300001020A60012180F839100020704770B54A
:102A4000044690F83800012817D0012584F8385042
:102A5000022084F839002068826822F0770222F48C
:102A60007F4282600868502837D00DDC202859D07A
:102A700005DC88B3102841D151E0022070BD302818
:102A800053D040283AD13FE060282ED070280BD098
:102A9000B0F5805F03D0B0F5005F2FD110E0206863
:102AA000816821F0070115E0CB68D1E90121206898
:102AB00000F0EAFB2168886840F0770088601DE03C
:102AC000CB68D1E90121206800F0DEFB2068816835
:102AD00041F48041816011E01EE0CA6849682068C5
:102AE00000F0E4FB5021206806E0CA6849682068CD
:102AF00000F0EDFB6021206800F0D0FB84F8395035
:102B0000002084F8380070BDCA684968206800F069
:102B1000CDFB40212068EFE700212068ECE7102181
:102B20002068E9E720212068E6E730212068E3E714
:102B300070B5040004D094F83900002510B106E007
:102B4000012070BD84F83850204600F021F80220A2
:102B500084F839002068C16821F40051C160204622
:102B600000F0C8FB2068016921F4904101612068F0
:102B7000416921F02A0141612068C16841F4005196
:102B8000C160E563012084F83900002070BD0000B9
:102B900010B50068114986B088421DD1104881697E
:102BA00041F48041816180690E4C00F480400490C2
:102BB0004FF40070009002200190032003906946BA
:102BC0002046FFF787F800212015CDE9000102918A
:102BD00069462046FFF77EF806B010BD0038014078
:102BE00000100240000801402DE9F047044690F82B
:102BF000390099460D46012801D0222858D12DB31D
:102C000022B394F83800012852D0012684F83860A5
:102C10000027E76394F8390022281AD05FF01200E9
:102C200084F83900A284E2844FF48058E08C4B464B
:102C3000401EE084A0684FF0000240454FF0800144
:102C4000204613D100F00EFC08BB04E00120BDE8D3
:102C5000F0873220E4E728882168C0F30800486044
:102C6000206908B16D1C08E0AD1C06E000F0FAFB1D
:102C700068B9216815F8010B4860E08C0028D5D1AF
:102C80004B4600224021204600F0ECFB08B1032017
:102C9000DDE794F83900322806D084F8396000BFA7
:102CA00084F838700020D2E7222084F83900F7E752
:102CB0000220CCE7FEE7000070B5334D082128461E
:102CC000FFF7E6F8314C012600BB0A20FEF7F6FFBD
:102CD00008212846FFF7DCF8C0B908212846FFF78D
:102CE000D7F80028F9D0207928B10020207120B130
:102CF000A67027A204E00120F8E70020A07026A219
:102D000000210846FEF71CFBFEF716FA10212846A4
:102D1000FFF7BEF8B0B90A20FEF7D0FF1021284611
:102D2000FFF7B6F870B910212846FFF7B1F8002870
:102D3000F9D0207930B96078401CC0B260700428A6
:102D400000D9667020212846FFF7A2F8002819D183
:102D50000A20FEF7B3FF20212846FFF799F8002844
:102D600010D120212846FFF793F80028F9D02079C8
:102D7000002807D16078012801D105206070C0B219
:102D8000401E607070BD000000080140000000207F
:102D90004175746F000000004D616E75616C00003C
:102DA0003EB5104800240E498460C460446101604F
:102DB000012505614FF400214460C161FEF746FC26
:102DC00008B1FEF781F9CDE900456946054802944E
:102DD000FEF730FB002801D0FEF776F93EBD00007B
:102DE00000240140F00C0020094808B5416941F079
:102DF000010141614069002200F00100009011468C
:102E00000B20FFF7CDF8BDE808400B20FFF7BCB85A
:102E1000001002401A4810B5816986B041F02001C7
:102E20008161816901F020010491816941F004010F
:102E30008161816901F004010491816941F0080117
:102E4000816180690F4C00F0080004900022F0219D
:102E50002046FFF722F800213820CDE90001029139
:102E600069460948FEF736FFF020009001200190E6
:102E70000220039069462046FEF72CFF06B010BDE5
:102E800000100240000C01400008014010B5144839
:102E900086B01249016048210024C0E90114642170
:102EA000C0E90314FFF78EFD08B1FEF70DF94FF4EA
:102EB0008050009069460A48FFF7C1FD08B1FEF74F
:102EC00003F92020CDE9040404A90548FFF752FDC9
:102ED000002801D0FEF7F8F806B010BD000400404D
:102EE000580D00200C4810B50A4901604FF4E1313B
:102EF0004160002181600C22C160C0E9041281613F
:102F0000C161FFF715FE002803D0BDE81040FEF7B1
:102F1000DBB810BD00380140B00C0020FEE7704760
:102F20000907090E002806DA00F00F0000F1E02082
:102F300080F8141D704700F1E02080F800147047FD
:102F400030B40021094B0A465FF0000003EB001487
:102F5000401CC0B224F811208228F7D3491CC9B202
:102F60000829F1D330BC00F09FB80000940D002078
:102F700010B5832818D83F2916D80723A3EBD1030F
:102F800001F00701C1F107040121A140074CDBB2A8
:102F900004EB0010002A30F81320C9B201D00A4314
:102FA00000E08A4320F8132010BD0000940D00209B
:102FB00010B5FEF78BF83B4C002220212046FEF78F
:102FC0006CFF6420FEF77AFE012220212046FEF7E6
:102FD00064FF0021AE2000F08DF80021D52000F024
:102FE00089F80021502000F085F80021A82000F089
:102FF00081F800213F2000F07DF80021D32000F06F
:1030000079F80021084600F075F80021402000F012
:1030100071F800218D2000F06DF80021142000F0DF
:1030200069F80021202000F065F80021022000F05E
:1030300061F80021A12000F05DF80021C02000F01F
:1030400059F80021DA2000F055F80021122000F094
:1030500051F80021812000F04DF80021EF2000F010
:1030600049F80021D92000F045F80021F12000F0B6
:1030700041F80021DB2000F03DF80021302000F075
:1030800039F80021A42000F035F80021A62000F036
:1030900031F80021AF2000F02DF8BDE81040FFF717
:1030A0004FBF0000000C014070B5114E002400BF5E
:1030B00004F1B000C0B2002100F01CF80021084665
:1030C00000F018F80021102000F014F85FF000055F
:1030D00006EB0510012110F8140000F00BF86D1C30
:1030E000EDB2802DF4D3641CE4B2082CE0D370BDA3
:1030F000940D002070B5154E054609B1012200E07F
:10310000002210213046FEF7C8FE00240022802154
:103110003046FEF7C2FE280601D5012200E000225B
:1031200040213046FEF7B9FE012280213046FEF7ED
:10313000B4FE6806641C050EE4B2082CE6D33046E3
:10314000BDE8704001221021FEF7A7BE000C01402F
:103150007047704710B5FEF7ABFEBDE81040FFF7B3
:1031600005BC30B593B001210804CDE9001000255D
:10317000029502240491CDE907404FF4E010099034
:103180006846FFF713F900B1FEE70AA90F2081E8AE
:1031900031004FF48060CDE90D0502210AA8FEF749
:1031A000C7FF00B1FEE74FF4004011900F940FA845
:1031B000FEF728FF00B1FEE7FFF77EF84FF47A71C3
:1031C000B0FBF1F0FFF7BEFB0420FFF7AEFB0022DF
:1031D0001146501EFEF7E4FE13B030BD0D480168E5
:1031E00041F00101016041680B4A114041600168F2
:1031F0000A4A11400160016821F4802101604168A0
:1032000021F4FE0141604FF41F0181600449C003B5
:1032100008607047001002400000FFF8FFFFF6FE54
:1032200008ED00E0F0B50268144B154C154D4FF059
:103230008047984205D0B84203D0A04201D0A842AE
:1032400003D122F070064A683243984205D0B84252
:1032500003D0A04201D0A84203D122F44074CA682E
:10326000224302608A68C2620A688262984201D17F
:103270000969016301214161F0BD0000002C01409A
:10328000000400400008004010B5846842EA0322B0
:1032900024F47F440A432243826010BD826822F0F6
:1032A00070020A4342F007018160704710B5036A5B
:1032B000046A24F001040462846924F0F00444EAFE
:1032C000021423F00A020A438461026210BD10B5A1
:1032D000036A23F0100303628369046A23F47043D2
:1032E00043EA023224F0A00343EA01118261016241
:1032F00010BD00002DE9F041044600680169E26854
:1033000021F44051114301612169A06808436169BA
:1033100008432168CA6841F20C639A430243CA60B9
:1033200020684169A26921F44071114341614C490F
:1033300020686425322688423CD1FEF7DBFF00EB93
:10334000C00101EB001061688900B0FBF1F7FEF7E6
:10335000D1FF00EBC00101EB00106168B0468900AD
:10336000B0FBF1F0B0FBF5F06FF01801484307EB4C
:10337000800106EB0110B0FBF5F000F0F006FEF75F
:10338000B9FF00EBC00101EB001061688900B0FBE0
:10339000F1F0B0FBF5F006EB0016FEF7ABFF00EB2B
:1033A000C00101EB001061688900B0FBF1F7FEF786
:1033B000A1FF3BE0FEF786FF00EBC00101EB001030
:1033C00061688900B0FBF1F7FEF77CFF00EBC001FC
:1033D00001EB00106168B0468900B0FBF1F0B0FB72
:1033E000F5F06FF01801484307EB800106EB011080
:1033F000B0FBF5F000F0F006FEF764FF00EBC00153
:1034000001EB001061688900B0FBF1F0B0FBF5F052
:1034100006EB0016FEF756FF00EBC00101EB0010B3
:1034200061688900B0FBF1F7FEF74CFF00EBC001CB
:1034300001EB001061688900B0FBF1F0B0FBF5F022
:103440006FF01801484307EB800108EB0110B0FB57
:10345000F5F0216800F00F0030448860BDE8F0818D
:10346000003801402DE9F0471D4690460E460446BF
:10347000FEF718FD07465FEA08004FF000094FF01D
:10348000010808D030E0681C05D095B1FEF70AFDB0
:10349000C01BA8420DD82068006836EA0000F2D1AF
:1034A00027E0681C20D025B1FEF7FCFCC01BA84219
:1034B0001AD92068C16821F08001C1602068C16804
:1034C00021F02001C1602068C16821F48071C160D1
:1034D0002068416921F00101416184F8398084F854
:1034E00038900320BDE8F0872068006836EA0000C5
:1034F000D7D00020F6E7FEE70FB4054B10B503A9BF
:10350000044A029800F0F4F810BC5DF814FB0000C7
:103510004D410008280000200FB4084B10B504A945
:1035200002AA039800F0E4F8044602A9002000F083
:1035300076FC204610BC5DF814FB00001F3E00081E
:1035400002E008C8121F08C1002AFAD1704770476C
:10355000002001E001C1121F002AFBD170470000CA
:1035600001490860704700002C0000202DE9FF5F32
:1035700082B00021DDE90430020DDDF840B00343E4
:1035800018D044F61050A2F2FF324243151411989D
:1035900001281FD0A5EB0B00401C5FEA000A4FF08A
:1035A00000064E4FDFF83891B046504615D5CAF1A7
:1035B000000413E0119801244AA3012801D16FEA05
:1035C0000B010298119AC0E90031C0E9024206B02D
:1035D000BDE8F09FCBF10000DFE704460021404A40
:1035E000491842EB0450CDE9001012E0E00707D083
:1035F00032463B4640464946FDF7E3F98046894658
:1036000032463B4610461946FDF7DBF906460F46A3
:103610006410002CEAD1DDE90401DDE90023BAF1F0
:10362000000F06DAFDF7CDF942464B46FDF7C9F922
:1036300005E0FDF738FA42464B46FDF734FA0446FA
:103640000E460022284BFDF765FC03D84FF0FF30F3
:10365000014607E00022254B20463146FDF70AF9D6
:10366000FDF740FC102409E0002C0ADB0A220023AD
:10367000FDF701FB039B30321A55641E50EA01022C
:10368000F2D1641C039AC4F111031444119A012A63
:1036900003D0012208430DD10AE0084304D00020E2
:1036A0004FF0110B119072E7A3EB0B056D1E0DE0AF
:1036B0005B4504DD4FF0000205F1010504E003DA8B
:1036C0004FF00002A5F10105002AECD002981199F3
:1036D000C0E90231C0E9004579E70000000014406C
:1036E0000000F03F300000000000F0430000E03F29
:1036F0002DE9FF4F95B09B468946064600250FE20F
:10370000252877D100242746F84A0121059400E0B6
:10371000044316F8013F203B01FA03F01042F7D1B1
:1037200030782A2811D06FF02F033078A0F13002C2
:10373000092A16D8059A44F0020402EB820203EB30
:1037400042021044761C0590EFE759F8042B0592CD
:10375000002A03DA504244F40054059044F0020475
:10376000761C30782E2816D116F8010F44F0040488
:103770002A280DD06FF02F023078A0F13003092BEA
:1037800009D807EB870302EB4303C718761CF3E75E
:1037900059F8047B761C30786C280FD006DC4C2856
:1037A00017D068280DD06A2814D104E0742810D0EE
:1037B0007A280FD10DE044F400140AE044F4801498
:1037C00001E044F440147278824202D104F580147E
:1037D000761C761C307866280BD013DC582877D0FE
:1037E00009DC002875D04528F6D04628F4D04728B3
:1037F0001AD19DE118E0632835D0642879D0652876
:1038000012D195E1702873D008DC6728F1D06928BF
:103810006FD06E280DD06F2806D1B5E073282CD05C
:10382000752875D0782874D05A46179990476D1C22
:1038300075E1C4F30250022809D003280DD0D9F84D
:10384000001004280DD00D6009F1040967E1D9F8D2
:103850000010EA17C1E90052F6E7D9F800100D8010
:10386000F2E70D70F0E719F8041B8DF80010002046
:103870008DF80100EA46012003E059F804AB4FF04F
:10388000FF3061074FF0000102D40DE008F10101A3
:103890008846B9420FDA8045F8DB1AF8081000298B
:1038A000F4D108E008F1010188468142FADB1AF8F8
:1038B00008100029F6D105985B46A0EB08072146C1
:1038C0003846179A00F094FA284400EB080507E000
:1038D0004DE029E10DE01AF8010B5A46179990477F
:1038E000B8F10108F7D25B4621463846179A13E132
:1038F00042E00A220092C4F302524FF0000A022A68
:1039000008D059F804CB032A4FEAEC710AD00DE035
:1039100029E02AE009F1070121F00702F2E802C1DB
:10392000914609E00FFA8CFC4FEAEC71042A03D1AE
:103930004FFA8CFC4FEAEC71002907DA0A460021A5
:10394000DCF1000C61EB02012D2202E0220504D51E
:103950002B228DF80420012203E0E20701D020226F
:10396000F7E7904659E00A2102E010220DE010210D
:103970004FF0000A00910BE010224FF0000A44F0D3
:1039800004040827009203E008224FF0000A009286
:10399000C4F30252022A05D059F804CB0021032AAD
:1039A00008D009E009F1070121F00702F2E802C19D
:1039B000914605E01FFA8CFC042A01D10CF0FF0CA3
:1039C0004FF00008220728D5702806D0009B83F00E
:1039D000100353EA0A0305D00EE040228DF80420BC
:1039E000012208E05CEA010206D030228DF80420B2
:1039F0008DF8050002229046009B83F0080353EAED
:103A00000A030AD15CEA010201D1620705D530221E
:103A10008DF804204FF001087F1E582804D034A0F0
:103A200003900EA802900DE036A0F9E753466046D9
:103A3000009AFDF720F984460398825C0298401EA4
:103A4000029002705CEA0100F0D1029806A9081AFF
:103A500000F1200A600702D524F4803400E0012739
:103A6000574502DDA7EB0A0000E0002000EB0A0149
:103A7000009005984144401A0590E00306D45B4647
:103A80002146179A059800F0B3F90544002706E08F
:103A900001A85A46C05D179990476D1C7F1C474589
:103AA000F6DBE0030CD55B462146179A059800F03B
:103AB0009FF9054404E030205A46179990476D1C41
:103AC0000099481E00900029F5DC08E00298029950
:103AD0005A460078491C0291179990476D1CBAF11B
:103AE0000001AAF1010AF1DC65E1000009280100EA
:103AF0003031323334353637383961626364656664
:103B00000000000030313233343536373839414225
:103B1000434445460000000000F058F90544761C77
:103B2000307800287FF4ECAD19B02846BDE8F08F5E
:103B3000620700D4062709F1070222F0070CFCE80F
:103B40000223E14603F000485FEA080C02D00FF2BE
:103B5000702C0DE05FEA045C02D50FF2682C07E0E0
:103B60005FEAC47C02D00FF2602C01E0AFF2700C6F
:103B70004FF0FF3823F00043CDF850C065280CD03B
:103B800006DC452809D046281DD047283DD13DE018
:103B9000662818D067287ED138E00021112F01DB7C
:103BA000112000E0781CCDE9000106A90EA8FFF75E
:103BB000DDFCDDE90F010E9A03910021009207F16F
:103BC000010A04914DE04FF000400097CDE901104B
:103BD00006A90EA8FFF7CAFCDDE90F0203920E9BAF
:103BE00011990022DDF80CA00093049211B9791C00
:103BF00000EB010AB7EB0A0004D4C0F1FF3007F173
:103C0000010A0490AAEB0700019044E0012F00DABA
:103C100001270021112F01DD112000E03846CDE9F8
:103C2000000106A90EA8FFF7A1FCDDE90F010E9A1D
:103C30000391002104910092BA4621070CD4039904
:103C4000514500DA8A46BAF1010F05DD009AAAF162
:103C50000101515C302908D0B84202DA10F1040F9A
:103C600006DA0121CDE9011015E0AAF10101E9E729
:103C7000002805DC049901440491AAEB000102E04C
:103C8000411C514500DD8A460499401A401C0190B0
:103C90004FF000400290200704D40198504501DB0A
:103CA000CDF8048000208DF84F0002980DF14F07E9
:103CB000B0F1004F25D02B200E9002984FF0020853
:103CC00000280CDA404202902D200E9007E00A21D5
:103CD0000298FCF7BAFF3031029007F8011DB8F1E5
:103CE0000001A8F10108F2DC02980028EFD1791E4A
:103CF0000E980870307800F0200040F0450007F87A
:103D0000020D12A8C01B00F107081498007800B13A
:103D1000012000EB0A01019801EBE0710598414494
:103D2000401A401E0590E00306D45B462146179AD0
:103D3000059800F05DF805441498007818B15A46CB
:103D4000179990476D1CE00324D55B462146179ACE
:103D5000059800F04DF805441CE00498002807DBA6
:103D6000DDE90301884203DD0098405C179901E01A
:103D7000179930205A469047049805F10105401CD8
:103D800004900198401E019004D12E205A461799A4
:103D900090476D1CBAF10001AAF1010ADDDC05E0D3
:103DA00017F8010B5A46179990476D1CB8F100019E
:103DB000A8F10108F4DC5B462146179A0598ABE6AA
:103DC0002D0000002B000000200000002DE9F04134
:103DD000044600251E461746880404D405E03946EB
:103DE0002020B0476D1C641EF9D52846BDE8F0813F
:103DF0002DE9F041044600251E469046C80301D532
:103E0000302700E02027880404D505E041463846E5
:103E1000B0476D1C641EF9D52846BDE8F0810A68DC
:103E2000531C0B60107070472DE9F04F8BB00024CD
:103E30002646202102A8FCF77CFCFDF77BF92B4DE0
:103E40004FF0010A4FF0030BA5F50079A006070E0D
:103E500009EB870041682648007891FBF0F0C0F13B
:103E60003D0000F0FF08B8F13F0F01D94FF03F08C7
:103E7000CDE900BA3A463F2341461046FDF776F9B0
:103E8000285D404502D905F804800EE03F2801D99D
:103E90003F202855CDE900BA295D3A46CB1C104693
:103EA000FDF764F9285D801C285559F82400641C2E
:103EB000A4B20644202CC9D33046FCF77AFE6FF03A
:103EC0000401FCF7CBFCFCF791FE02460B4609A16E
:103ED00002A8FFF721FB002102AA0846FDF730FAED
:103EE000FDF72AF90BB0BDE8F08F0000300C002080
:103EF000000000206672657175656E6379203A2056
:103F0000252E3266000000002DE9F04389B000261E
:103F100020216846FCF70DFCFDF70CF92C4DDFF86D
:103F2000B4900124A5F5007799F8000057F8241003
:103F300091FBF0F0C0F13D0000F0FF08B8F13F0F39
:103F400001D94FF03F0801233F2241462046FDF7AB
:103F500008FA285D404502D905F804800DE03F28A5
:103F600001D93F202855C1B2481CC2B201232046C6
:103F7000FDF7F7F9285D801C285557F82400B0425A
:103F800000DD0646641CA4B2802CCDD399F8031042
:103F900048464A1C89F80320322901D8816802E08A
:103FA0000021C1708160B14200DA866032460AA108
:103FB0006846D9F80830FFF7AFFA00216A4608468C
:103FC000FDF7BEF9FDF7B8F809B0BDE8F0830000D1
:103FD000300C0020000000206375723A256C6448A4
:103FE0007A207C206D61783A256C64487A00000064
:103FF0002DE9F0410024FDF79DF8234FDFF88C8078
:1040000007F5007507EB8400416898F8000091FB04
:10401000F0F0C0F11D00C6B21F2E00D91F260123EB
:10402000324620212046FDF79CF9C6F13F00C2B27E
:10403000012320212046FDF794F9285DB04201D9E3
:104040002E5518E01E2801D91E202855C1B2481C43
:10405000C2B201232046FDF784F9285D0123C0F197
:104060003E01CAB2C0F13F00C1B22046FDF779F966
:10407000285D801C2855641CA4B27F2CC2D3BDE8E7
:10408000F041FDF759B80000300A00200000002080
:104090002DE9FC5F0024FDF74DF8DFF8A8B00126FC
:1040A0004FF003090BF5007AA006070E0BEB870013
:1040B00041682548007891FBF0F0C0F11D0000F048
:1040C000FF08B8F11F0F01D94FF01F08CDE9009686
:1040D0003A464D46202341461046FDF747F8CDE9C4
:1040E00000563A46C8F13F0120231046FDF73EF83E
:1040F0001AF804005546404502D90AF8048019E030
:104100001F2801D91F202855CDE90096295D3A4680
:10411000CB1C1046FDF72AF8CDE90096285D3A46FB
:10412000C0F13C03C0F13F011046FDF71FF8285DC8
:10413000801C2855641CA4B2202CB5D3BDE8FC5FBC
:10414000FCF7FABF300A00200000002013B54FF63C
:10415000FF73012269460248FEF746FD01201CBD9F
:10416000B00C00200024FDF7ABFEFEF7FAFFFEF7CF
:1041700051FEFEF739FEFEF7B5FEFEF711FEFEF723
:1041800085FE14A0FFF7B8F9FCF7EEFF002101202F
:10419000FDF7FCF8134A20211420FDF7D1F8FCF7B5
:1041A000CBFF40F6B830FDF789FD0F493F20085599
:1041B000641CA4B2802CFAD34FF480720B490C48D3
:1041C000FDF71AFB0B48FEF72DFC00BFFEF774FD50
:1041D000FCE7000075617274207465737421200D12
:1041E0000A0000000C000020300C002030000020ED
:1041F000F00C0020580D00202DE9F04106460F4636
:10420000FCF71FFE041E0D4618BF0120284320F0B6
:104210000040C0F17F6000F1E040C00F0ED0301CC4
:1042200018BF0120384320F00040C0F17F6000F14A
:10423000E040C00F04BF0120FFF792F92046294655
:10424000BDE8F0810000000000000000010203044E
:104250000607080900000000010203040000000036
:10426000000000008080808080008000A0A0A0006E
:10427000000000005050F850F85050002078A07016
:1042800028F02000C0C81020409818006090A0407E
:10429000A8906800C040800000000000204080809E
:1042A000804020008040202020408000005020F8E6
:1042B00020500000002020F8202000000000000016
:1042C00000C04080000000F8000000000000000076
:1042D00000C0C0000008102040800000708898A82E
:1042E000C88870002060202020207000708808306E
:1042F0004080F800708808300888700010305090B6
:10430000F8101000F880F00808887000304080F045
:1043100088887000F808102040404000708888703D
:1043200088887000708888780810600000C0C0001D
:10433000C0C000000000C0C000C04080102040800D
:10434000402010000000F800F8000000804020101D
:1043500020408000708808102000200070880868C5
:10436000A8A87000708888F888888800F08888F08D
:104370008888F0007088808080887000E09088884D
:104380008890E000F88080F08080F800F88080F06D
:10439000808080007088808098887800888888F87D
:1043A00088888800E04040404040E000381010100D
:1043B000109060008890A0C0A090880080808080CD
:1043C0008080F80088D8A8A8888888008888C8A82D
:1043D000988888007088888888887000F08888F0BD
:1043E0008080800070888888A8906800F08888F0B5
:1043F000A09088007088807008887000F8202020C5
:10440000202020008888888888887000888888888C
:1044100088502000888888A8A8A850008888502044
:10442000508888008888502020202000F80810201C
:104430004080F800E08080808080E00000804020A4
:1044400010080000E02020202020E00020508800FC
:104450000000000000000000000000F88040200084
:104460000000000000007008788878008080B0C8E4
:104470008888F000000060908090600008086898CC
:104480008888780000007088F8807000205040E034
:104490004040400000007888887808708080B0C86C
:1044A0008888880040004040404040002000602054
:1044B000202020C0808090A0C0A09000C04040403C
:1044C0004040E0000000D0A8A88888000000B0D0DC
:1044D0009090900000006090909060000000E0904C
:1044E00090E080800000709090701010000050608C
:1044F00040404000000070806010E0004040E0401C
:10450000404060000000909090907000000088880B
:104510008850200000008888A8A85000000088501B
:104520002050880000009090907010600000F810FB
:104530002040F80020404080404020004040404063
:104540004040400080404020404080006890000093
:1045500000000000F8F8F8F8F8F8F80080402010A3
:10456000080402018445000800000020300000001B
:1045700040350008B44500083000002068190000EC
:10458000503500080A020000000000000000000092
:1045900054756E6572202D2044656E675775000056
:1045A00000A24A040000000000000000000000001B
:0445B0000000000007
:04000005080000ED02
:00000001FF
